:020000001B28BB
:100008007E14803120007F08FA002100911C1128FD
:100018002000911C1128AE2016288B190B1C1628BD
:1000280084200B107A082000FF007E1009001C288D
:10003800F001F101F201F301F401F820F500F920D3
:10004800F600FA20F700FB20F8000321A2000421A3
:10005800A3007E102000DD2820008C1C35280C1CF5
:1000680038288C1C0C1C4C280130F5020030F63B5B
:1000780008307506760403194F2875087604031DA1
:10008800512822000C120A30F5000030F6005128E1
:100098007308031D512822000C16730803196728DA
:1000A80020000C1862280130F7020030F83B77086E
:1000B8007804031D6728F401F40A6728F301503017
:1000C800F7000030F80072080319080020000C1D22
:1000D8007E280130A2020030A33B22082304031D1E
:1000E800080022008C10F20104302000A200003029
:1000F800A3000800F2010430A2000030A3000800A9
:1001080027001119131D902820000C1C8D28F201BE
:10011800F20A270013110800121C0800131C08001B
:10012800F301F30A22000C122700131008002230F2
:1001380022008C0023008C01083024008C000D3034
:1001480021008C00951322009D012700111512141F
:100158008B15080020009110DE30F3200130F007E5
:100168000030F13D00307102073003197002031CA2
:100178000800D220F001F1010800023020009C00A4
:10018800FF309B009A01911021009114303020001B
:10019800A4000030A500E720002108002000200866
:1001A80021040319080021088A0020080A00803168
:1001B8000800FC208B170B1774080319E0288B1311
:1001C80022008C12E62820002508A1002408A0009F
:1001D80008005830210099009A0198010800F90098
:1001E800790820009B0008000A3400345034003499
:1001F8009B20ED20C120080020001C1508000434B5
:020208000034C0
:020000040001F9
:04000E00A4FFFFDF6D
:00000001FF
